{
  "_format": "hh-sol-artifact-1",
  "contractName": "BetPoolFactory",
  "sourceName": "contracts/BetPoolFactory.sol",
  "abi": [
    {
      "inputs": [],
      "stateMutability": "nonpayable",
      "type": "constructor"
    },
    {
      "anonymous": false,
      "inputs": [
        {
          "indexed": false,
          "internalType": "address",
          "name": "newPool",
          "type": "address"
        }
      ],
      "name": "newPoolCreated",
      "type": "event"
    },
    {
      "inputs": [
        {
          "internalType": "address",
          "name": "_newUser",
          "type": "address"
        }
      ],
      "name": "changeAllowance",
      "outputs": [],
      "stateMutability": "nonpayable",
      "type": "function"
    },
    {
      "inputs": [
        {
          "internalType": "uint256",
          "name": "_timespan",
          "type": "uint256"
        }
      ],
      "name": "createNewBetPool",
      "outputs": [],
      "stateMutability": "nonpayable",
      "type": "function"
    }
  ],
  "bytecode": "0x608060405234801561001057600080fd5b5060016000803373ffffffffffffffffffffffffffffffffffffffff1673ffffffffffffffffffffffffffffffffffffffff16815260200190815260200160002060006101000a81548160ff021916908360ff160217905550612256806100786000396000f3fe608060405234801561001057600080fd5b50600436106100365760003560e01c806337f6da771461003b578063a0524f8e14610057575b600080fd5b61005560048036038101906100509190610365565b610073565b005b610071600480360381019061006c919061038e565b6101bd565b005b60008060003373ffffffffffffffffffffffffffffffffffffffff1673ffffffffffffffffffffffffffffffffffffffff16815260200190815260200160002060009054906101000a900460ff1660ff1611610104576040517f08c379a00000000000000000000000000000000000000000000000000000000081526004016100fb90610466565b60405180910390fd5b60016000808373ffffffffffffffffffffffffffffffffffffffff1673ffffffffffffffffffffffffffffffffffffffff16815260200190815260200160002060009054906101000a900460ff1660ff1614610161576001610164565b60005b6000808373ffffffffffffffffffffffffffffffffffffffff1673ffffffffffffffffffffffffffffffffffffffff16815260200190815260200160002060006101000a81548160ff021916908360ff16021790555050565b60008060003373ffffffffffffffffffffffffffffffffffffffff1673ffffffffffffffffffffffffffffffffffffffff16815260200190815260200160002060009054906101000a900460ff1660ff161161024e576040517f08c379a000000000000000000000000000000000000000000000000000000000815260040161024590610466565b60405180910390fd5b6000338260405161025e9061032e565b61026992919061043d565b604051809103906000f080158015610285573d6000803e3d6000fd5b5090508073ffffffffffffffffffffffffffffffffffffffff1663a6f9dae1336040518263ffffffff1660e01b81526004016102c19190610422565b600060405180830381600087803b1580156102db57600080fd5b505af11580156102ef573d6000803e3d6000fd5b505050507fa75fed4353e7e918d6b614dbd9e9e94823d4dab94be08df21d3ebcd9e695ba38816040516103229190610407565b60405180910390a15050565b611ce48061053d83390190565b60008135905061034a8161050e565b92915050565b60008135905061035f81610525565b92915050565b60006020828403121561037757600080fd5b60006103858482850161033b565b91505092915050565b6000602082840312156103a057600080fd5b60006103ae84828501610350565b91505092915050565b6103c0816104a9565b82525050565b6103cf81610497565b82525050565b60006103e2600c83610486565b91506103ed826104e5565b602082019050919050565b610401816104db565b82525050565b600060208201905061041c60008301846103c6565b92915050565b600060208201905061043760008301846103b7565b92915050565b600060408201905061045260008301856103b7565b61045f60208301846103f8565b9392505050565b6000602082019050818103600083015261047f816103d5565b9050919050565b600082825260208201905092915050565b60006104a2826104bb565b9050919050565b60006104b4826104bb565b9050919050565b600073ffffffffffffffffffffffffffffffffffffffff82169050919050565b6000819050919050565b7f4e6f7420616c6c6f776564210000000000000000000000000000000000000000600082015250565b61051781610497565b811461052257600080fd5b50565b61052e816104db565b811461053957600080fd5b5056fe60c06040526000600560006101000a81548160ff021916908360ff1602179055503480156200002d57600080fd5b5060405162001ce438038062001ce48339818101604052810190620000539190620000e6565b816000806101000a81548173ffffffffffffffffffffffffffffffffffffffff021916908373ffffffffffffffffffffffffffffffffffffffff16021790555042608081815250508042620000a9919062000127565b60a08181525050505062000225565b600081519050620000c981620001f1565b92915050565b600081519050620000e0816200020b565b92915050565b60008060408385031215620000fa57600080fd5b60006200010a85828601620000b8565b92505060206200011d85828601620000cf565b9150509250929050565b60006200013482620001b8565b91506200014183620001b8565b9250827fffffffffffffffffffffffffffffffffffffffffffffffffffffffffffffffff03821115620001795762000178620001c2565b5b828201905092915050565b6000620001918262000198565b9050919050565b600073ffffffffffffffffffffffffffffffffffffffff82169050919050565b6000819050919050565b7f4e487b7100000000000000000000000000000000000000000000000000000000600052601160045260246000fd5b620001fc8162000184565b81146200020857600080fd5b50565b6200021681620001b8565b81146200022257600080fd5b50565b60805160a051611a8b62000259600039600081816109dd01528181610f5c015261101b015260006107ab0152611a8b6000f3fe6080604052600436106100f75760003560e01c8063ad2784671161008a578063f4e6e50b11610059578063f4e6e50b146102cd578063f61c266b146102f8578063fb26f32b14610323578063fb5afcd01461032d57610101565b8063ad27846714610258578063c4f4160114610262578063cc6f2c0a14610279578063e6941035146102a457610101565b806363b665a4116100c657806363b665a4146101c2578063853828b6146101ed578063893d20e814610204578063a6f9dae11461022f57610101565b80630d530b78146101065780630e25597114610131578063213462091461016e578063556314691461018557610101565b3661010157600080fd5b600080fd5b34801561011257600080fd5b5061011b61036a565b6040516101289190611670565b60405180910390f35b34801561013d57600080fd5b50610158600480360381019061015391906112f6565b610408565b6040516101659190611670565b60405180910390f35b34801561017a57600080fd5b50610183610420565b005b34801561019157600080fd5b506101ac60048036038101906101a791906112f6565b61072f565b6040516101b99190611670565b60405180910390f35b3480156101ce57600080fd5b506101d7610747565b6040516101e49190611670565b60405180910390f35b3480156101f957600080fd5b5061020261074d565b005b34801561021057600080fd5b5061021961087e565b60405161022691906114de565b60405180910390f35b34801561023b57600080fd5b506102566004803603810190610251919061131f565b6108a7565b005b610260610942565b005b34801561026e57600080fd5b50610277610ae9565b005b34801561028557600080fd5b5061028e610df8565b60405161029b9190611670565b60405180910390f35b3480156102b057600080fd5b506102cb60048036038101906102c69190611384565b610dfe565b005b3480156102d957600080fd5b506102e2610eba565b6040516102ef9190611670565b60405180910390f35b34801561030457600080fd5b5061030d610f58565b60405161031a9190611670565b60405180910390f35b61032b610f80565b005b34801561033957600080fd5b50610354600480360381019061034f9190611348565b611127565b6040516103619190611670565b60405180910390f35b6000806004541415610380576103e89050610405565b600060035414156103b45766038d7ea4c680006004546103a091906116f2565b6103e86103ad919061169c565b9050610405565b60035460646103c39190611723565b600f60646103d1919061177d565b6004546103e86103e19190611723565b6103eb9190611723565b6103f591906116f2565b6103e8610402919061169c565b90505b90565b60016020528060005260406000206000915090505481565b6001600560009054906101000a900460ff1660ff1614610475576040517f08c379a000000000000000000000000000000000000000000000000000000000815260040161046c906115f0565b60405180910390fd5b6000600160003373ffffffffffffffffffffffffffffffffffffffff1673ffffffffffffffffffffffffffffffffffffffff16815260200190815260200160002054116104f7576040517f08c379a00000000000000000000000000000000000000000000000000000000081526004016104ee90611630565b60405180910390fd5b6000600160003373ffffffffffffffffffffffffffffffffffffffff1673ffffffffffffffffffffffffffffffffffffffff1681526020019081526020016000205490506000606460035461054c9190611723565b600f606461055a919061177d565b600454600160003373ffffffffffffffffffffffffffffffffffffffff1673ffffffffffffffffffffffffffffffffffffffff168152602001908152602001600020546105a79190611723565b6105b19190611723565b6105bb91906116f2565b90506000600160003373ffffffffffffffffffffffffffffffffffffffff1673ffffffffffffffffffffffffffffffffffffffff168152602001908152602001600020819055506000600454141561068e573373ffffffffffffffffffffffffffffffffffffffff166108fc839081150290604051600060405180830381858888f19350505050158015610653573d6000803e3d6000fd5b507f106f923f993c2149d49b4255ff723acafa1f2d94393f561d3eda32ae348f72413383604051610685929190611567565b60405180910390a15b6000600454111561072b57600081836106a7919061169c565b90503373ffffffffffffffffffffffffffffffffffffffff166108fc829081150290604051600060405180830381858888f193505050501580156106ef573d6000803e3d6000fd5b507f106f923f993c2149d49b4255ff723acafa1f2d94393f561d3eda32ae348f72413382604051610721929190611567565b60405180910390a1505b5050565b60026020528060005260406000206000915090505481565b60035481565b60008054906101000a900473ffffffffffffffffffffffffffffffffffffffff1673ffffffffffffffffffffffffffffffffffffffff163373ffffffffffffffffffffffffffffffffffffffff16146107a557600080fd5b62093a807f00000000000000000000000000000000000000000000000000000000000000006107d4919061169c565b4211610815576040517f08c379a000000000000000000000000000000000000000000000000000000000815260040161080c90611650565b60405180910390fd5b60008054906101000a900473ffffffffffffffffffffffffffffffffffffffff1673ffffffffffffffffffffffffffffffffffffffff166108fc479081150290604051600060405180830381858888f1935050505015801561087b573d6000803e3d6000fd5b50565b60008060009054906101000a900473ffffffffffffffffffffffffffffffffffffffff16905090565b60008054906101000a900473ffffffffffffffffffffffffffffffffffffffff1673ffffffffffffffffffffffffffffffffffffffff163373ffffffffffffffffffffffffffffffffffffffff16146108ff57600080fd5b806000806101000a81548173ffffffffffffffffffffffffffffffffffffffff021916908373ffffffffffffffffffffffffffffffffffffffff16021790555050565b60003411610985576040517f08c379a000000000000000000000000000000000000000000000000000000000815260040161097c906115d0565b60405180910390fd5b6000600560009054906101000a900460ff1660ff16146109da576040517f08c379a00000000000000000000000000000000000000000000000000000000081526004016109d190611610565b60405180910390fd5b427f000000000000000000000000000000000000000000000000000000000000000011610a3c576040517f08c379a0000000000000000000000000000000000000000000000000000000008152600401610a3390611610565b60405180910390fd5b34600160003373ffffffffffffffffffffffffffffffffffffffff1673ffffffffffffffffffffffffffffffffffffffff1681526020019081526020016000206000828254610a8b919061169c565b925050819055503460036000828254610aa4919061169c565b925050819055507f9f6b4cced64244a64465098f682029975b1614400b96bc6bd12c66808371916633600134604051610adf939291906114f9565b60405180910390a1565b6002600560009054906101000a900460ff1660ff1614610b3e576040517f08c379a0000000000000000000000000000000000000000000000000000000008152600401610b35906115f0565b60405180910390fd5b6000600260003373ffffffffffffffffffffffffffffffffffffffff1673ffffffffffffffffffffffffffffffffffffffff1681526020019081526020016000205411610bc0576040517f08c379a0000000000000000000000000000000000000000000000000000000008152600401610bb790611630565b60405180910390fd5b6000600260003373ffffffffffffffffffffffffffffffffffffffff1673ffffffffffffffffffffffffffffffffffffffff16815260200190815260200160002054905060006064600454610c159190611723565b600f6064610c23919061177d565b600354600260003373ffffffffffffffffffffffffffffffffffffffff1673ffffffffffffffffffffffffffffffffffffffff16815260200190815260200160002054610c709190611723565b610c7a9190611723565b610c8491906116f2565b90506000600260003373ffffffffffffffffffffffffffffffffffffffff1673ffffffffffffffffffffffffffffffffffffffff1681526020019081526020016000208190555060006003541415610d57573373ffffffffffffffffffffffffffffffffffffffff166108fc839081150290604051600060405180830381858888f19350505050158015610d1c573d6000803e3d6000fd5b507f106f923f993c2149d49b4255ff723acafa1f2d94393f561d3eda32ae348f72413383604051610d4e929190611567565b60405180910390a15b60006003541115610df45760008183610d70919061169c565b90503373ffffffffffffffffffffffffffffffffffffffff166108fc829081150290604051600060405180830381858888f19350505050158015610db8573d6000803e3d6000fd5b507f106f923f993c2149d49b4255ff723acafa1f2d94393f561d3eda32ae348f72413382604051610dea929190611567565b60405180910390a1505b5050565b60045481565b60008054906101000a900473ffffffffffffffffffffffffffffffffffffffff1673ffffffffffffffffffffffffffffffffffffffff163373ffffffffffffffffffffffffffffffffffffffff1614610e5657600080fd5b60048160ff1610610e9c576040517f08c379a0000000000000000000000000000000000000000000000000000000008152600401610e9390611590565b60405180910390fd5b80600560006101000a81548160ff021916908360ff16021790555050565b6000806003541415610ed0576103e89050610f55565b60006004541415610f045766038d7ea4c68000600354610ef091906116f2565b6103e8610efd919061169c565b9050610f55565b6004546064610f139190611723565b600f6064610f21919061177d565b6003546103e8610f319190611723565b610f3b9190611723565b610f4591906116f2565b6103e8610f52919061169c565b90505b90565b60007f0000000000000000000000000000000000000000000000000000000000000000905090565b60003411610fc3576040517f08c379a0000000000000000000000000000000000000000000000000000000008152600401610fba906115d0565b60405180910390fd5b6000600560009054906101000a900460ff1660ff1614611018576040517f08c379a000000000000000000000000000000000000000000000000000000000815260040161100f90611610565b60405180910390fd5b427f00000000000000000000000000000000000000000000000000000000000000001161107a576040517f08c379a000000000000000000000000000000000000000000000000000000000815260040161107190611610565b60405180910390fd5b34600260003373ffffffffffffffffffffffffffffffffffffffff1673ffffffffffffffffffffffffffffffffffffffff16815260200190815260200160002060008282546110c9919061169c565b9250508190555034600460008282546110e2919061169c565b925050819055507f9f6b4cced64244a64465098f682029975b1614400b96bc6bd12c6680837191663360023460405161111d93929190611530565b60405180910390a1565b600060018214806111385750600282145b611177576040517f08c379a000000000000000000000000000000000000000000000000000000000815260040161116e906115b0565b60405180910390fd5b6000831415611189576000905061129c565b6000600454141561119d576000905061129c565b600060035414156111b1576000905061129c565b6001821415611226576000836003546111ca919061169c565b905060008160646111db9190611723565b600f60646111e9919061177d565b6004546103e86111f99190611723565b6112039190611723565b61120d91906116f2565b6103e861121a919061169c565b9050809250505061129c565b600282141561129b5760008360045461123f919061169c565b905060008160646112509190611723565b600f606461125e919061177d565b6003546103e861126e9190611723565b6112789190611723565b61128291906116f2565b6103e861128f919061169c565b9050809250505061129c565b5b92915050565b6000813590506112b1816119f9565b92915050565b6000813590506112c681611a10565b92915050565b6000813590506112db81611a27565b92915050565b6000813590506112f081611a3e565b92915050565b60006020828403121561130857600080fd5b6000611316848285016112a2565b91505092915050565b60006020828403121561133157600080fd5b600061133f848285016112b7565b91505092915050565b6000806040838503121561135b57600080fd5b6000611369858286016112cc565b925050602061137a858286016112cc565b9150509250929050565b60006020828403121561139657600080fd5b60006113a4848285016112e1565b91505092915050565b6113b6816117b1565b82525050565b6113c58161180c565b82525050565b6113d48161181e565b82525050565b60006113e7600e8361168b565b91506113f28261188e565b602082019050919050565b600061140a60198361168b565b9150611415826118b7565b602082019050919050565b600061142d600f8361168b565b9150611438826118e0565b602082019050919050565b6000611450602a8361168b565b915061145b82611909565b604082019050919050565b6000611473600c8361168b565b915061147e82611958565b602082019050919050565b600061149660278361168b565b91506114a182611981565b604082019050919050565b60006114b960128361168b565b91506114c4826119d0565b602082019050919050565b6114d8816117f5565b82525050565b60006020820190506114f360008301846113ad565b92915050565b600060608201905061150e60008301866113ad565b61151b60208301856113bc565b61152860408301846114cf565b949350505050565b600060608201905061154560008301866113ad565b61155260208301856113cb565b61155f60408301846114cf565b949350505050565b600060408201905061157c60008301856113ad565b61158960208301846114cf565b9392505050565b600060208201905081810360008301526115a9816113da565b9050919050565b600060208201905081810360008301526115c9816113fd565b9050919050565b600060208201905081810360008301526115e981611420565b9050919050565b6000602082019050818103600083015261160981611443565b9050919050565b6000602082019050818103600083015261162981611466565b9050919050565b6000602082019050818103600083015261164981611489565b9050919050565b60006020820190508181036000830152611669816114ac565b9050919050565b600060208201905061168560008301846114cf565b92915050565b600082825260208201905092915050565b60006116a7826117f5565b91506116b2836117f5565b9250827fffffffffffffffffffffffffffffffffffffffffffffffffffffffffffffffff038211156116e7576116e6611830565b5b828201905092915050565b60006116fd826117f5565b9150611708836117f5565b9250826117185761171761185f565b5b828204905092915050565b600061172e826117f5565b9150611739836117f5565b9250817fffffffffffffffffffffffffffffffffffffffffffffffffffffffffffffffff048311821515161561177257611771611830565b5b828202905092915050565b6000611788826117f5565b9150611793836117f5565b9250828210156117a6576117a5611830565b5b828203905092915050565b60006117bc826117d5565b9050919050565b60006117ce826117d5565b9050919050565b600073ffffffffffffffffffffffffffffffffffffffff82169050919050565b6000819050919050565b600060ff82169050919050565b6000611817826117ff565b9050919050565b6000611829826117ff565b9050919050565b7f4e487b7100000000000000000000000000000000000000000000000000000000600052601160045260246000fd5b7f4e487b7100000000000000000000000000000000000000000000000000000000600052601260045260246000fd5b7f4e6f742076616c69642063616c6c000000000000000000000000000000000000600082015250565b7f4e6f74207375636820616e206f7074696f6e20666f756e642100000000000000600082015250565b7f4265742063616e6e6f7420626520300000000000000000000000000000000000600082015250565b7f546869732062657420656974686572206973206e6f7420636c6f7365642c206f60008201527f72206973206c6f73742100000000000000000000000000000000000000000000602082015250565b7f4265747320636c6f736564210000000000000000000000000000000000000000600082015250565b7f596f7520646964206e6f7420706c616365206120626574206f6e20746869732060008201527f6f7074696f6e2100000000000000000000000000000000000000000000000000602082015250565b7f6e6f7420617661696c61626c6520796574210000000000000000000000000000600082015250565b611a02816117b1565b8114611a0d57600080fd5b50565b611a19816117c3565b8114611a2457600080fd5b50565b611a30816117f5565b8114611a3b57600080fd5b50565b611a47816117ff565b8114611a5257600080fd5b5056fea26469706673582212204c80896150b230d7a922b884ed5d6f7cbe4a255419bf5a7c15c4a2314e0cbe4664736f6c63430008040033a2646970667358221220543cb7e85dd135e1f4bb52a92810b7a12b85ee3a7ac2850e63e81d8bd2e50ff764736f6c63430008040033",
  "linkReferences": {},
  "deployedLinkReferences": {}
}