{
  "_format": "hh-sol-artifact-1",
  "contractName": "BetPool",
  "sourceName": "contracts/BetPool.sol",
  "abi": [
    {
      "inputs": [
        {
          "internalType": "address payable",
          "name": "_owner",
          "type": "address"
        },
        {
          "internalType": "uint256",
          "name": "_timeSpan",
          "type": "uint256"
        }
      ],
      "stateMutability": "nonpayable",
      "type": "constructor"
    },
    {
      "anonymous": false,
      "inputs": [
        {
          "indexed": false,
          "internalType": "address",
          "name": "from",
          "type": "address"
        },
        {
          "indexed": false,
          "internalType": "uint8",
          "name": "option",
          "type": "uint8"
        },
        {
          "indexed": false,
          "internalType": "uint256",
          "name": "amount",
          "type": "uint256"
        }
      ],
      "name": "BetPlaced",
      "type": "event"
    },
    {
      "anonymous": false,
      "inputs": [
        {
          "indexed": false,
          "internalType": "address",
          "name": "to",
          "type": "address"
        },
        {
          "indexed": false,
          "internalType": "uint256",
          "name": "amount",
          "type": "uint256"
        }
      ],
      "name": "RewardClaimed",
      "type": "event"
    },
    {
      "stateMutability": "payable",
      "type": "fallback"
    },
    {
      "inputs": [
        {
          "internalType": "address",
          "name": "",
          "type": "address"
        }
      ],
      "name": "balancesA",
      "outputs": [
        {
          "internalType": "uint256",
          "name": "",
          "type": "uint256"
        }
      ],
      "stateMutability": "view",
      "type": "function"
    },
    {
      "inputs": [
        {
          "internalType": "address",
          "name": "",
          "type": "address"
        }
      ],
      "name": "balancesB",
      "outputs": [
        {
          "internalType": "uint256",
          "name": "",
          "type": "uint256"
        }
      ],
      "stateMutability": "view",
      "type": "function"
    },
    {
      "inputs": [],
      "name": "claimRewardA",
      "outputs": [],
      "stateMutability": "nonpayable",
      "type": "function"
    },
    {
      "inputs": [],
      "name": "claimRewardB",
      "outputs": [],
      "stateMutability": "nonpayable",
      "type": "function"
    },
    {
      "inputs": [],
      "name": "getExpiry",
      "outputs": [
        {
          "internalType": "uint256",
          "name": "",
          "type": "uint256"
        }
      ],
      "stateMutability": "view",
      "type": "function"
    },
    {
      "inputs": [
        {
          "internalType": "uint256",
          "name": "_potentialBetAmount",
          "type": "uint256"
        },
        {
          "internalType": "uint256",
          "name": "_betSide",
          "type": "uint256"
        }
      ],
      "name": "getNewRatio",
      "outputs": [
        {
          "internalType": "uint256",
          "name": "potentialRatio_",
          "type": "uint256"
        }
      ],
      "stateMutability": "view",
      "type": "function"
    },
    {
      "inputs": [],
      "name": "getOwner",
      "outputs": [
        {
          "internalType": "address",
          "name": "",
          "type": "address"
        }
      ],
      "stateMutability": "view",
      "type": "function"
    },
    {
      "inputs": [],
      "name": "getRatioForA",
      "outputs": [
        {
          "internalType": "uint256",
          "name": "",
          "type": "uint256"
        }
      ],
      "stateMutability": "view",
      "type": "function"
    },
    {
      "inputs": [],
      "name": "getRatioForB",
      "outputs": [
        {
          "internalType": "uint256",
          "name": "",
          "type": "uint256"
        }
      ],
      "stateMutability": "view",
      "type": "function"
    },
    {
      "inputs": [],
      "name": "placeBetA",
      "outputs": [],
      "stateMutability": "payable",
      "type": "function"
    },
    {
      "inputs": [],
      "name": "placeBetB",
      "outputs": [],
      "stateMutability": "payable",
      "type": "function"
    },
    {
      "inputs": [
        {
          "internalType": "uint8",
          "name": "_winnerIndex",
          "type": "uint8"
        }
      ],
      "name": "selectWinner",
      "outputs": [],
      "stateMutability": "nonpayable",
      "type": "function"
    },
    {
      "inputs": [],
      "name": "totalBalanceA",
      "outputs": [
        {
          "internalType": "uint256",
          "name": "",
          "type": "uint256"
        }
      ],
      "stateMutability": "view",
      "type": "function"
    },
    {
      "inputs": [],
      "name": "totalBalanceB",
      "outputs": [
        {
          "internalType": "uint256",
          "name": "",
          "type": "uint256"
        }
      ],
      "stateMutability": "view",
      "type": "function"
    },
    {
      "inputs": [],
      "name": "withdrawAll",
      "outputs": [],
      "stateMutability": "nonpayable",
      "type": "function"
    },
    {
      "stateMutability": "payable",
      "type": "receive"
    }
  ],
  "bytecode": "0x60e06040526000600460006101000a81548160ff021916908360ff1602179055503480156200002d57600080fd5b5060405162001c4c38038062001c4c8339818101604052810190620000539190620000dd565b8173ffffffffffffffffffffffffffffffffffffffff1660808173ffffffffffffffffffffffffffffffffffffffff1660601b815250504260a081815250508042620000a091906200011e565b60c0818152505050506200021c565b600081519050620000c081620001e8565b92915050565b600081519050620000d78162000202565b92915050565b60008060408385031215620000f157600080fd5b60006200010185828601620000af565b92505060206200011485828601620000c6565b9150509250929050565b60006200012b82620001af565b91506200013883620001af565b9250827fffffffffffffffffffffffffffffffffffffffffffffffffffffffffffffffff0382111562000170576200016f620001b9565b5b828201905092915050565b600062000188826200018f565b9050919050565b600073ffffffffffffffffffffffffffffffffffffffff82169050919050565b6000819050919050565b7f4e487b7100000000000000000000000000000000000000000000000000000000600052601160045260246000fd5b620001f3816200017b565b8114620001ff57600080fd5b50565b6200020d81620001af565b81146200021957600080fd5b50565b60805160601c60a05160c0516119da620002726000396000818161091401528181610e9d0152610f5c0152600061077e015260008181610722015281816107ea015281816108550152610d3601526119da6000f3fe6080604052600436106100ec5760003560e01c8063ad2784671161008a578063f4e6e50b11610059578063f4e6e50b14610299578063f61c266b146102c4578063fb26f32b146102ef578063fb5afcd0146102f9576100f6565b8063ad27846714610224578063c4f416011461022e578063cc6f2c0a14610245578063e694103514610270576100f6565b806355631469116100c6578063556314691461017a57806363b665a4146101b7578063853828b6146101e2578063893d20e8146101f9576100f6565b80630d530b78146100fb5780630e255971146101265780632134620914610163576100f6565b366100f657600080fd5b600080fd5b34801561010757600080fd5b50610110610336565b60405161011d9190611599565b60405180910390f35b34801561013257600080fd5b5061014d60048036038101906101489190611205565b6103df565b60405161015a9190611599565b60405180910390f35b34801561016f57600080fd5b506101786103f7565b005b34801561018657600080fd5b506101a1600480360381019061019c9190611205565b610702565b6040516101ae9190611599565b60405180910390f35b3480156101c357600080fd5b506101cc61071a565b6040516101d99190611599565b60405180910390f35b3480156101ee57600080fd5b506101f7610720565b005b34801561020557600080fd5b5061020e610851565b60405161021b91906113e7565b60405180910390f35b61022c610879565b005b34801561023a57600080fd5b50610243610a1f565b005b34801561025157600080fd5b5061025a610d2e565b6040516102679190611599565b60405180910390f35b34801561027c57600080fd5b506102976004803603810190610292919061126a565b610d34565b005b3480156102a557600080fd5b506102ae610df0565b6040516102bb9190611599565b60405180910390f35b3480156102d057600080fd5b506102d9610e99565b6040516102e69190611599565b60405180910390f35b6102f7610ec1565b005b34801561030557600080fd5b50610320600480360381019061031b919061122e565b611068565b60405161032d9190611599565b60405180910390f35b6000806002541415801561034d5750600060035414155b61038c576040517f08c379a000000000000000000000000000000000000000000000000000000000815260040161038390611539565b60405180910390fd5b600254606461039b919061164c565b600f60646103a991906116a6565b6003546103e86103b9919061164c565b6103c3919061164c565b6103cd919061161b565b6103e86103da91906115c5565b905090565b60006020528060005260406000206000915090505481565b6001600460009054906101000a900460ff1660ff161461044c576040517f08c379a0000000000000000000000000000000000000000000000000000000008152600401610443906114f9565b60405180910390fd5b60008060003373ffffffffffffffffffffffffffffffffffffffff1673ffffffffffffffffffffffffffffffffffffffff16815260200190815260200160002054116104cd576040517f08c379a00000000000000000000000000000000000000000000000000000000081526004016104c490611559565b60405180910390fd5b60008060003373ffffffffffffffffffffffffffffffffffffffff1673ffffffffffffffffffffffffffffffffffffffff16815260200190815260200160002054905060006064600254610521919061164c565b600f606461052f91906116a6565b6003546000803373ffffffffffffffffffffffffffffffffffffffff1673ffffffffffffffffffffffffffffffffffffffff1681526020019081526020016000205461057b919061164c565b610585919061164c565b61058f919061161b565b905060008060003373ffffffffffffffffffffffffffffffffffffffff1673ffffffffffffffffffffffffffffffffffffffff1681526020019081526020016000208190555060006003541415610661573373ffffffffffffffffffffffffffffffffffffffff166108fc839081150290604051600060405180830381858888f19350505050158015610626573d6000803e3d6000fd5b507f106f923f993c2149d49b4255ff723acafa1f2d94393f561d3eda32ae348f72413383604051610658929190611470565b60405180910390a15b600060035411156106fe576000818361067a91906115c5565b90503373ffffffffffffffffffffffffffffffffffffffff166108fc829081150290604051600060405180830381858888f193505050501580156106c2573d6000803e3d6000fd5b507f106f923f993c2149d49b4255ff723acafa1f2d94393f561d3eda32ae348f724133826040516106f4929190611470565b60405180910390a1505b5050565b60016020528060005260406000206000915090505481565b60025481565b7f000000000000000000000000000000000000000000000000000000000000000073ffffffffffffffffffffffffffffffffffffffff163373ffffffffffffffffffffffffffffffffffffffff161461077857600080fd5b62093a807f00000000000000000000000000000000000000000000000000000000000000006107a791906115c5565b42116107e8576040517f08c379a00000000000000000000000000000000000000000000000000000000081526004016107df90611579565b60405180910390fd5b7f000000000000000000000000000000000000000000000000000000000000000073ffffffffffffffffffffffffffffffffffffffff166108fc479081150290604051600060405180830381858888f1935050505015801561084e573d6000803e3d6000fd5b50565b60007f0000000000000000000000000000000000000000000000000000000000000000905090565b600034116108bc576040517f08c379a00000000000000000000000000000000000000000000000000000000081526004016108b3906114d9565b60405180910390fd5b6000600460009054906101000a900460ff1660ff1614610911576040517f08c379a000000000000000000000000000000000000000000000000000000000815260040161090890611519565b60405180910390fd5b427f000000000000000000000000000000000000000000000000000000000000000011610973576040517f08c379a000000000000000000000000000000000000000000000000000000000815260040161096a90611519565b60405180910390fd5b346000803373ffffffffffffffffffffffffffffffffffffffff1673ffffffffffffffffffffffffffffffffffffffff16815260200190815260200160002060008282546109c191906115c5565b9250508190555034600260008282546109da91906115c5565b925050819055507f9f6b4cced64244a64465098f682029975b1614400b96bc6bd12c66808371916633600134604051610a1593929190611402565b60405180910390a1565b6002600460009054906101000a900460ff1660ff1614610a74576040517f08c379a0000000000000000000000000000000000000000000000000000000008152600401610a6b906114f9565b60405180910390fd5b6000600160003373ffffffffffffffffffffffffffffffffffffffff1673ffffffffffffffffffffffffffffffffffffffff1681526020019081526020016000205411610af6576040517f08c379a0000000000000000000000000000000000000000000000000000000008152600401610aed90611559565b60405180910390fd5b6000600160003373ffffffffffffffffffffffffffffffffffffffff1673ffffffffffffffffffffffffffffffffffffffff16815260200190815260200160002054905060006064600354610b4b919061164c565b600f6064610b5991906116a6565b600254600160003373ffffffffffffffffffffffffffffffffffffffff1673ffffffffffffffffffffffffffffffffffffffff16815260200190815260200160002054610ba6919061164c565b610bb0919061164c565b610bba919061161b565b90506000600160003373ffffffffffffffffffffffffffffffffffffffff1673ffffffffffffffffffffffffffffffffffffffff1681526020019081526020016000208190555060006002541415610c8d573373ffffffffffffffffffffffffffffffffffffffff166108fc839081150290604051600060405180830381858888f19350505050158015610c52573d6000803e3d6000fd5b507f106f923f993c2149d49b4255ff723acafa1f2d94393f561d3eda32ae348f72413383604051610c84929190611470565b60405180910390a15b60006002541115610d2a5760008183610ca691906115c5565b90503373ffffffffffffffffffffffffffffffffffffffff166108fc829081150290604051600060405180830381858888f19350505050158015610cee573d6000803e3d6000fd5b507f106f923f993c2149d49b4255ff723acafa1f2d94393f561d3eda32ae348f72413382604051610d20929190611470565b60405180910390a1505b5050565b60035481565b7f000000000000000000000000000000000000000000000000000000000000000073ffffffffffffffffffffffffffffffffffffffff163373ffffffffffffffffffffffffffffffffffffffff1614610d8c57600080fd5b60048160ff1610610dd2576040517f08c379a0000000000000000000000000000000000000000000000000000000008152600401610dc990611499565b60405180910390fd5b80600460006101000a81548160ff021916908360ff16021790555050565b60008060025414158015610e075750600060035414155b610e46576040517f08c379a0000000000000000000000000000000000000000000000000000000008152600401610e3d90611539565b60405180910390fd5b6003546064610e55919061164c565b600f6064610e6391906116a6565b6002546103e8610e73919061164c565b610e7d919061164c565b610e87919061161b565b6103e8610e9491906115c5565b905090565b60007f0000000000000000000000000000000000000000000000000000000000000000905090565b60003411610f04576040517f08c379a0000000000000000000000000000000000000000000000000000000008152600401610efb906114d9565b60405180910390fd5b6000600460009054906101000a900460ff1660ff1614610f59576040517f08c379a0000000000000000000000000000000000000000000000000000000008152600401610f5090611519565b60405180910390fd5b427f000000000000000000000000000000000000000000000000000000000000000011610fbb576040517f08c379a0000000000000000000000000000000000000000000000000000000008152600401610fb290611519565b60405180910390fd5b34600160003373ffffffffffffffffffffffffffffffffffffffff1673ffffffffffffffffffffffffffffffffffffffff168152602001908152602001600020600082825461100a91906115c5565b92505081905550346003600082825461102391906115c5565b925050819055507f9f6b4cced64244a64465098f682029975b1614400b96bc6bd12c6680837191663360023460405161105e93929190611439565b60405180910390a1565b600060018214806110795750600282145b6110b8576040517f08c379a00000000000000000000000000000000000000000000000000000000081526004016110af906114b9565b60405180910390fd5b60008314156110ca57600090506111c0565b600182141561113f576000836002546110e391906115c5565b905060008160646110f4919061164c565b600f606461110291906116a6565b6003546103e8611112919061164c565b61111c919061164c565b611126919061161b565b6103e861113391906115c5565b905080925050506111c0565b60028214156111bf5760008360035461115891906115c5565b90506000816064611169919061164c565b600f606461117791906116a6565b6002546103e8611187919061164c565b611191919061164c565b61119b919061161b565b6103e86111a891906115c5565b905084816111b6919061164c565b925050506111c0565b5b92915050565b6000813590506111d58161195f565b92915050565b6000813590506111ea81611976565b92915050565b6000813590506111ff8161198d565b92915050565b60006020828403121561121757600080fd5b6000611225848285016111c6565b91505092915050565b6000806040838503121561124157600080fd5b600061124f858286016111db565b9250506020611260858286016111db565b9150509250929050565b60006020828403121561127c57600080fd5b600061128a848285016111f0565b91505092915050565b61129c816116da565b82525050565b6112ab81611723565b82525050565b6112ba81611735565b82525050565b60006112cd600e836115b4565b91506112d8826117a5565b602082019050919050565b60006112f06019836115b4565b91506112fb826117ce565b602082019050919050565b6000611313600f836115b4565b915061131e826117f7565b602082019050919050565b6000611336602a836115b4565b915061134182611820565b604082019050919050565b6000611359600c836115b4565b91506113648261186f565b602082019050919050565b600061137c6026836115b4565b915061138782611898565b604082019050919050565b600061139f6027836115b4565b91506113aa826118e7565b604082019050919050565b60006113c26012836115b4565b91506113cd82611936565b602082019050919050565b6113e18161170c565b82525050565b60006020820190506113fc6000830184611293565b92915050565b60006060820190506114176000830186611293565b61142460208301856112a2565b61143160408301846113d8565b949350505050565b600060608201905061144e6000830186611293565b61145b60208301856112b1565b61146860408301846113d8565b949350505050565b60006040820190506114856000830185611293565b61149260208301846113d8565b9392505050565b600060208201905081810360008301526114b2816112c0565b9050919050565b600060208201905081810360008301526114d2816112e3565b9050919050565b600060208201905081810360008301526114f281611306565b9050919050565b6000602082019050818103600083015261151281611329565b9050919050565b600060208201905081810360008301526115328161134c565b9050919050565b600060208201905081810360008301526115528161136f565b9050919050565b6000602082019050818103600083015261157281611392565b9050919050565b60006020820190508181036000830152611592816113b5565b9050919050565b60006020820190506115ae60008301846113d8565b92915050565b600082825260208201905092915050565b60006115d08261170c565b91506115db8361170c565b9250827fffffffffffffffffffffffffffffffffffffffffffffffffffffffffffffffff038211156116105761160f611747565b5b828201905092915050565b60006116268261170c565b91506116318361170c565b92508261164157611640611776565b5b828204905092915050565b60006116578261170c565b91506116628361170c565b9250817fffffffffffffffffffffffffffffffffffffffffffffffffffffffffffffffff048311821515161561169b5761169a611747565b5b828202905092915050565b60006116b18261170c565b91506116bc8361170c565b9250828210156116cf576116ce611747565b5b828203905092915050565b60006116e5826116ec565b9050919050565b600073ffffffffffffffffffffffffffffffffffffffff82169050919050565b6000819050919050565b600060ff82169050919050565b600061172e82611716565b9050919050565b600061174082611716565b9050919050565b7f4e487b7100000000000000000000000000000000000000000000000000000000600052601160045260246000fd5b7f4e487b7100000000000000000000000000000000000000000000000000000000600052601260045260246000fd5b7f4e6f742076616c69642063616c6c000000000000000000000000000000000000600082015250565b7f4e6f74207375636820616e206f7074696f6e20666f756e642100000000000000600082015250565b7f4265742063616e6e6f7420626520300000000000000000000000000000000000600082015250565b7f546869732062657420656974686572206973206e6f7420636c6f7365642c206f60008201527f72206973206c6f73742100000000000000000000000000000000000000000000602082015250565b7f4265747320636c6f736564210000000000000000000000000000000000000000600082015250565b7f4f6e65207369646520686173206e6f7420726563656976656420616e7920626560008201527f7420796574210000000000000000000000000000000000000000000000000000602082015250565b7f596f7520646964206e6f7420706c616365206120626574206f6e20746869732060008201527f6f7074696f6e2100000000000000000000000000000000000000000000000000602082015250565b7f6e6f7420617661696c61626c6520796574210000000000000000000000000000600082015250565b611968816116da565b811461197357600080fd5b50565b61197f8161170c565b811461198a57600080fd5b50565b61199681611716565b81146119a157600080fd5b5056fea2646970667358221220ea47d248d3e97db67a7d15e22a5d3063dadead929c0ef29addb321a3d0b44cd964736f6c63430008040033",
  "linkReferences": {},
  "deployedLinkReferences": {}
}